S01400004E6F646F5F325F52656465732E737265639D
S113000062C1000081C100007FC100007DC1000009
S11300107BC100000C94121B77C1000075C1000065
S113002073C1000071C100006FC100006DC1000008
S11300306BC1000069C1000067C1000065C1000018
S113004063C100000C948C140C94B9140C94E61441
S11300500C945F1459C1000057C1000055C1000041
S113006053C1000051C100004FC100004DC1000048
S11300704BC1000049C1000047C1000045C1000058
S11300800C9440150C946D150C949A150C9413153E
S113009071C7000039C1000037C10000BCC20000B4
S11300A033C1000031C100000C94F4150C942116E6
S11300B00C944E160C94C71527C100000C94A81676
S11300C00C94D5160C9402170C947B161DC10000D9
S11300D01BC1000019C1000017C1000015C10000B8
S11300E013C1000011C100000FC100000DC10000C8
S11300F00BC1000009C1000007C1000005C10000D8
S113010003C1000001C10000FFC00000FDC00000E9
S1130110FBC00000F9C00000F7C00000F5C00000FB
S1130120F3C00000F1C00000EFC00000EDC000000B
S1130130EBC00000B603B204B204B204B204B204C9
S1130140B204B2042D03B204B204B204B204B20481
S1130150B204B2042D03B204B204B204B204B20471
S1130160B204B2045203B204B204B204B204B2043C
S1130170B204B204B603B204B204B204B204B204C8
S1130180B204B2045203B204B204B204B204B2041C
S1130190B204B204B603B204B204B204B204B204A8
S11301A0B204B2044304B204B204B204B204B2040A
S11301B0B204B204BB03B204B204B204B204B20483
S11301C0B204B204B603B204B204B204B204B20478
S11301D0B204B204E403B204B204B204B204B2043A
S11301E0B204B2041C04B204B204B204B204B204F1
S11301F0B204B2047704B204B204B204B204B20486
S1130200B204B2047704B204B204B204B204B20475
S1130210B204B2047704B204B204B204B204B20465
S1130220B204B2047704B204B204B204B204B20455
S1130230B204B2048104B204B204B204B204B2043B
S1130240B204B204A604B204B204B204B204B20406
S1130250B204B2048104B204B204B204B204B2041B
S1130260B204B204A604B204B204B204B204B204E6
S1130270B204B2049A04B204B204B204B204B204E2
S1130280B204B2044C04B204B204B204B204B20420
S1130290B204B2044C04B204B204B204B204B20410
S11302A0B204B2045004B204B204B204B204B204FC
S11302B0B204B2046B04B204B204B204B204B204D1
S11302C0B204B204A60411241FBECFEFD1E8DEBFEE
S11302D0CDBF00E00CBF14E0A0E0B2E0E0E8F1E440
S11302E000E00BBF02C007900D92A234B107D9F70A
S11302F02EE0A2E4B4E001C01D92AD30B207E1F7F4
S11303000E940B1A0C94BE207BCE0E9407142091ED
S113031046042223D9F04091020E30E02091460495
S1130320642F732F0E946D1BFB018FEF9FEF642FCF
S1130330732F0E946D1B30E0629FC001639F900D7C
S1130340729F900D11248E0F9F1F08956091020ECD
S113035070E00E946D1BCB0108950E940C140E9452
S113036030141092420410924304109244041092E8
S1130370450410924804109247040C943D140E94C2
S11303801A14109246040895E8DFF9DF0C9421143E
S11303900F931F93CF93DF93EC010E9407148C01FA
S11303A0BE0180E090E02091020E30E040E050E099
S11303B00E945E1BDC01CB01A80160E070E0480FE5
S11303C0591F6A1F7B1F4093420450934304609358
S11303D04404709345044091420450914304609155
S11303E0440470914504AB01662777274093420487
S11303F05093430460934404709345044091420431
S11304005091430460914404709145044115510591
S11304106105710591F0409142045091430460914B
S11304204404709145040196080F191F1093480461
S1130430009347040E940C1408C0080F191F10935E
S11304404804009347040E94131480914704909138
S113045048048436910530F48C599F4F9093480496
S11304608093470480914704909148040E94251486
S1130470DF91CF911F910F910895109246040E942D
S11304803F148093020E0895809142049091430496
S1130490A0914404B09145040097A105B105C9F0A9
S11304A08091420490914304A0914404B091450486
S11304B00197A109B1098093420490934304A09346
S11304C04404B09345040097A105B10511F40E94BA
S11304D01314809146048F5F809346049091020E1A
S11304E0891748F010924604E0914904F0914A04B7
S11304F0309709F0199508950E940C14E0914B046B
S1130500F0914C04309709F01995089590934A049A
S113051080934904089590934C0480934B04089568
S113052081E080935C0410924E0480E98093BC00C7
S113053008956115710529F180914E04811123C03C
S1130540E6E5F4E0718360831382128215821482DB
S113055081E080934E04FB0184819581892B21F4F1
S113056084E080935C0403C082E080935C0485EAA9
S11305708093BC0080914E048111FCCF80915D0476
S1130580089588EF089580E808956115710551F183
S1130590FB0180859185892B39F180914E0481116D
S11305A025C0E6E5F4E0718360831382128215822C
S11305B0148281E080934E04FB0184819581892B10
S11305C021F485E080935C0403C083E080935C04A1
S11305D085EA8093BC0080914E048111FCCF809108
S11305E05D04089588EF089588EF089580E80895DC
S11305F0F894ECEBF0E010821092B900DB01149651
S11306008C918093B800808181608083789410926B
S11306104D0480E008951F920F920FB60F9211249B
S11306200BB60F922F933F934F935F936F937F93E8
S11306308F939F93AF93BF93EF93FF938091B900F0
S1130640887F90E0893C910508F08CC1FC018827E3
S1130650E656FF4F8F4F0C94A31B80915C049EEFD2
S1130660980F933060F4E0915604F0915704808120
S11306708E7F8093BB0085E88093BC008BC185305E
S113068061F4E0915604F091570480818160809375
S1130690BB0085E88093BC007DC142DF8BEF809373
S11306A05D0478C180915C04843051F5E6E5F4E0A2
S11306B0848195810190F081E02D20853185821718
S11306C0930798F426813781AC014F5F5F4F5093B5
S11306D05B0440935A04F901E80FF91F8081809369
S11306E0BB0085E88093BC0055C184E98093BC00BD
S11306F0E6E5F4E081E08683178210924E044AC155
S11307009EEF980F923038F5E6E5F4E0828193810C
S1130710A081B181A80FB91F11962C9101969383E2
S113072082832093BB0025E82093BC000190F081D4
S1130730E02D248135812817390709F02BC18091D8
S11307405C04823021F484E080935C0423C185E05E
S113075080935C041FC1853021F485EA8093BC003A
S113076019C1DEDE8BEF80935D0414C1D9DE8FEFF7
S113077080935D040FC180915C04853001F5E6E54A
S1130780F4E0A081B18118968D919C9119970197FD
S1130790248135812817390749F4ECEBF0E0808196
S11307A08F7B8083808185688083F4C0ECEBF0E0EC
S11307B0808180648083808185688083EBC0B0DE23
S11307C08BEF80935D04E6C02091BB0080915C04B4
S11307D0853069F5E6E5F4E0A081B18116966D9166
S11307E07C91179784819581AC014F5F5F4F55834E
S11307F04483FB01E80FF91F208318968D919C9187
S1130800199701974817590748F4ECEBF0E08081F9
S113081080648083808185688083BCC0ECEBF0E0D9
S113082080818F7B8083808185688083B3C078DEFC
S11308308BEF80935D04AEC02091BB0080915C047B
S11308408530E1F4E6E5F4E0A081B18116964D919E
S11308505C91179784819581BC016F5F7F4F75838D
S11308606483DA01A80FB91F2C9384E98093BC0038
S113087081E08683178210924E048CC051DE8BEF88
S113088080935D0487C0E6E5F4E081E0868386EF2B
S1130890878310924E047EC0109252041092510429
S11308A0EFE4F4E0A081B18112962D913C9113976D
S11308B082819381AC014F5F5F4F53834283D9019F
S11308C0A80FB91F8C918093BB0085EC8093BC006A
S11308D088E084835FC0EFE4F4E081E0848382E015
S11308E090E09683858385EC8093BC0053C0EFE44D
S11308F0F4E01382128285EC8093BC0088E0848348
S113090049C02091BB00EFE4F4E0A081B1814D9196
S11309105C9182819381BC016F5F7F4F738362839B
S1130920DA01A80FB91F2C9385EC8093BC0088E0F2
S1130930848330C0EFE4F4E081E0848383E090E0DA
S11309409683858385EC8093BC0024C0EFE4F4E0B7
S113095081E0848380E98093BC008FEF9FEF9683CE
S1130960858318C080914D04811109C0E6E5F4E047
S113097081E086838BEF878310924E040BC0EFE4F3
S1130980F4E08EEF9FEF9683858381E0848385EC8A
S11309908093BC00FF91EF91BF91AF919F918F9194
S11309A07F916F915F914F913F912F910F900BBE6B
S11309B00F900FBE0F901F901895CF93DF93CDB774
S11309C0DEB72A970FB6F894DEBF0FBECDBFFE0187
S11309D031968AE0DF011D928A95E9F786E98983D9
S11309E081E08A8381E090E09E838D8324E132E07C
S11309F038872F839A878987BE016F5F7F4F88EB83
S1130A0090E097DD8111F8CF2A960FB6F894DEBFF7
S1130A100FBECDBFDF91CF910895CF93DF93CDB7B4
S1130A20DEB72C970FB6F894DEBF0FBECDBF198288
S1130A301A82FE0133968AE0DF011D928A95E9F756
S1130A4086E98B8381E090E098878F83CE010196BD
S1130A509A87898782E090E09C878B87BE016D5FCF
S1130A607F4F88EB90E091DD8111F8CFEBEBFDE057
S1130A70898180838A818183CF012C960FB6F89473
S1130A80DEBF0FBECDBFDF91CF9108950F931F93AB
S1130A90CF93DF9300D000D0CDB7DEB78E010F5FC8
S1130AA01F4F86E0F80111928A95E9F788E498EEE1
S1130AB0A1E0B0E089839A83AB83BC8386E98E830B
S1130AC088E18D8360E880E02AD0B80188EB90E06B
S1130AD08FDD26960FB6F894DEBF0FBECDBFDF9133
S1130AE0CF911F910F910895CF93DF931F92CDB7AC
S1130AF0DEB78FEF80936400809365008FB789839E
S1130B00F89489815F9350E85093610050E05093CA
S1130B1061005F918FBF0F90DF91CF910895CF93C4
S1130B20DF931F92CDB7DEB79FB79983F89499816D
S1130B30823040F4E82FF0E0EC59FF4F609580815B
S1130B40682360839FBF0F90DF91CF910895CF9367
S1130B50DF931F92CDB7DEB79FB79983F89499813D
S1130B60823038F4E82FF0E0EC59FF4F8081682B95
S1130B7060839FBF0F90DF91CF910895EF92FF9212
S1130B800F931F93CF93DF937C018B01EA0120978E
S1130B9039F0F80161918F01C70154D02197C9F749
S1130BA080E0DF91CF911F910F91FF90EF90089516
S1130BB0EF92FF920F931F93CF93DF937C018B01EE
S1130BC0EA01209739F0C70144D0F80181938F01DD
S1130BD02197C9F780E0DF91CF911F910F91FF908A
S1130BE0EF900895CF93DF931F92CDB7DEB7809136
S1130BF0C70D9091C80DE091C30DF091C40DBE01D5
S1130C006F5F7F4F19958981082E000C990B0F9007
S1130C10DF91CF910895682F8091C70D9091C80DF1
S1130C20E091C50DF091C60D199599231CF081E052
S1130C3090E008958FEF9FEF08952C9A249A6C9872
S1130C40749A0895FC01908195FFFDCF668380E03E
S1130C500895FC0190819923ECF7868108954F92C1
S1130C605F926F927F928F929F92AF92BF92CF9238
S1130C70DF92EF92FF920F931F93CF93DF93EC01D8
S1130C806A017B0128013901689412F8769467940B
S1130C90579447941694D1F7888181FD0EC048017A
S1130CA05901072E73E1B694A794979487947A9583
S1130CB0D1F7702DD301C20115C0D901C8016894C0
S1130CC013F8B695A795979587951694D1F748018B
S1130CD05901072E74E1B694A794979487947A9552
S1130CE0D1F7702D8C159D05AE05BF0578F1C8149C
S1130CF0D904EA04FB0460F1888181FF10C0A701D4
S1130D009601220F331F441F551FC301B2010E94D5
S1130D10811BDA01C9010197A109B10913C0C901F5
S1130D20B801689413F89695879577956795169406
S1130D30D1F7A70196010E94811BDA01C90101972D
S1130D40A109B1099D838C8381E003C080E001C0C7
S1130D5080E0DF91CF911F910F91FF90EF90DF9092
S1130D60CF90BF90AF909F908F907F906F905F9047
S1130D704F9008950F931F93CF93DF93EC018B0152
S1130D80803C910521F462E080E0C9DE06C0883C25
S1130D90910519F461E081E0C2DE8A818F738A8350
S1130DA0F8012681358184819A81482F4370440F4C
S1130DB0997F942B9A8399818470880F880F9B7FE5
S1130DC0892B89838A818F7C832B8A839A81977F5D
S1130DD0822F880F880F880F892B8A834081518145
S1130DE06281738100E012E12AE730E0CE0137DF4F
S1130DF0998198609983998190619983DF91CF91CA
S1130E001F910F910895CF93DF93EB0122DF888325
S1130E10DF91CF91089516CF08950F931F93CF9329
S1130E20DF93CDB7DEB727970FB6F894DEBF0FBEBA
S1130E30CDBF08EC10E01093C80D0093C70D8BE0F4
S1130E4097E09093C60D8093C50D83E097E090934F
S1130E50C40D8093C30DEAE0F2E084818D83858123
S1130E608E8386818F8380819181A281B3818983DE
S1130E709A83AB83BC83BE016F5F7F4F88EC90E0A5
S1130E8079DF62EF75E08BE096E00E94221CF801A6
S1130E9081818068818327960FB6F894DEBF0FBEE8
S1130EA0CDBFDF91CF911F910F910895FF920F93C2
S1130EB01F93CF93DF938C01F62EC62FD0E0AE01A3
S1130EC0B80188EC90E05ADE8111F9CF8F2DDF91C3
S1130ED0CF911F910F91FF900895DC0180915F04E1
S1130EE090916004891728F0282F291B20935E0411
S1130EF005C02CE9280F291B20935E0490915E0401
S1130F00992331F19C3940F0809360048CE98093FB
S1130F105E046C3938F403C0961708F4692F611124
S1130F2002C018C06CE990916004262FE92FF0E00C
S1130F30EF59FB4F30813D9321509B3911F09F5F56
S1130F4001C090E02111F2CF90936004862F0895A0
S1130F5080E0089580E00895CF93DF931F92CDB78A
S1130F60DEB7898361E0CE010196A0DF0F90DF91A7
S1130F70CF9108951F920F920FB60F9211240BB6C2
S1130F800F922F933F934F935F936F937F938F931E
S1130F909F93AF93BF93EF93FF93CF93DF931F92EE
S1130FA0CDB7DEB741E050E0BE016F5F7F4F88EC04
S1130FB090E0FEDDF89480915F04E82FF0E0EF59B3
S1130FC0FB4F998190838B3919F410925F0403C00D
S1130FD08F5F80935F0478940F90DF91CF91FF919E
S1130FE0EF91BF91AF919F918F917F916F915F919D
S1130FF04F913F912F910F900BBE0F900FBE0F900A
S11310001F901895E9ECFDE014821582118210827C
S113101017AA16AAEFECFDE08FEE9DE01192119253
S1131020E817F907D9F7ADD765D318D143D096D1CE
S113103004C608959093CA0D8093C90D0C94DD11D4
S113104008959093CC0D8093CB0D0C94CB110895FF
S1131050E82FF0E0EE0FFF1FE153F24F718360833E
S113106008959AD30E94CA104ED03EC60895E091C6
S1131070FD04F091FE043097D9F022813381821768
S1131080930789F405C0228133812817390759F45D
S1131090DC01AD57BF4F2C91278713962C91208BE1
S11310A022E0248305C00190F081E02D309759F7A8
S11310B012C108951092FE041092FD040895FC01DB
S11310C01482178613821282A9ECBDE0D6968D9104
S11310D09C91D7970196D7969C938E93D69780919F
S11310E0FD049091FE04009739F411821082F0936C
S11310F0FE04E093FD04089591838083F093FE043D
S1131100E093FD0408950F931F93CF93DF93E09131
S1131110FD04F091FE04309709F49BC0EF018C812B
S1131120882321F0823009F46EC08DC09ED08C01DA
S1131130009721F482E08C838F878BC09B838A8302
S113114081E08C83F801E957FF4F87E398E09183AE
S113115080833197898582FB882780F980839985EC
S1131160D8011B968C911B9790FB80F91B968C934E
S11311701B97998593FB992790F990FB82F91B960D
S11311808C931B9799859695917090FB81F91B968A
S11311908C931B97E9ECFDE084818F5F84831C961C
S11311A08C931C97808191811E969C938E931D979E
S11311B08D819E8150969C938E931F978885982F3E
S11311C09F7051968C915197807F892B51968C9367
S11311D051979F819295907F8F70892B51968C9314
S11311E0F801EF57FF4F4C8550E06A857B8580817D
S11311F091810E94191CF80191818C85890F81834A
S1131200C801E2D626C0EC17FD0741F48081918124
S11312109093FE048093FD040AC0FC0180819181B7
S11312208C179D07D1F78881998191838083E9EC9C
S1131230FDE086A997A9019797AB86ABED85FE855E
S1131240CE01199506C00990D881C02D209709F0C8
S113125066CFDF91CF911F910F9108951092FF04F3
S1131260109288051092110608958091FF04882336
S113127071F080918805882339F0809111068111DD
S113128027C082E090E005C081E090E002C080E0E9
S113129090E049E8489F9001499F300D1124C9010D
S11312A081509B4FFC0111924A95E9F740E1FC0102
S11312B04183EF57FF4F2F5E3A4F31832083E9EC90
S11312C0FDE026A937A92F5F3F4F37AB26AB089522
S11312D080E090E00895FC011082E9ECFDE086A92D
S11312E097A9019797AB86AB0895009741F0FC014D
S11312F0E757FF4F86E0EA39F80718F012C0EFEF1E
S1131300F4E08081882321F00FC0808181110FC017
S1131310E757FF4F86E0EA39F807B8F380E090E03A
S1131320089580E090E008958E2F9F2F08958E2FCA
S11313309F2F0895FC01DC01AD57BF4F1C92A9EC0F
S1131340BDE014969C9114979F5F14969C931497F8
S113135094878D919C91968785870895ABE9B6E033
S113136080E090E04FEF5FEF11965C934E93FC01A9
S1131370EE0FFF1FEE0FFF1FEE0FFF1FE81BF90B11
S1131380E656F94F20812E7F208314961C921497E1
S1131390019617968436910539F708950F931F9394
S11313A0CF93DF93EBE9F6E020E030E0062F10E086
S11313B04081518148175907B1F4D901AA0FBB1FC5
S11313C0AA0FBB1FAA0FBB1FA21BB30BA656B94F74
S11313D04C9146954170C42F40E0D42FC017D107DB
S11313E011F4CD0108C02F5F3F4F379624363105E5
S11313F0F9F680E090E0DF91CF911F910F9108956D
S1131400A0E0B0E0EAE9F6E0808180FD0DC08581CE
S1131410882381F0109739F015969C9115978917B8
S113142018F4DF0101C0DF01379689E0E635F807DB
S113143059F7FD0180818D708063808380E8858306
S1131440CF010895FC01808180FD05C08FEF9FEFDF
S11314509283818315820895A1DF009721F0FC0116
S11314608381948108958FEF9FEF089597DF00970C
S113147009F0E8CF08950F931F93CF93DF93FC01F6
S11314800185128511232CF4858596850817190783
S1131490E1F5858196810196C1F1EF0160E08585D2
S11314A096857CDFFC01892BA1F08F8198850196BC
S11314B0F9F42091C90D3091CA0D8F8598892817A8
S11314C03907B1F41483038380818F708063808330
S11314D00AC096DFFC018D859E8592838183898570
S11314E09A8594838383CD57DF4F888186830DC08B
S11314F08381948108171907B1F39681DE01AD57F2
S1131500BF4F8C919817F0F2EECFDF91CF911F91DE
S11315100F910895CF93DF93FC01878590898F3FC6
S11315202FEF9207D9F1EF01638563FB662760F91A
S113153035DFDC01892B91F18C9180FD2FC0FE01F8
S1131540ED57FF4F8081811119C08C918F7080639A
S11315508C9315968C9115978F5F15968C938F3F6E
S1131560E9F4EFE9F6E02BE539E0808186958F5FB9
S113157080833796E217F307C1F710C09C91892F37
S113158082958F70815F8F70282F2295207F9F70A6
S1131590922B9C93811102C0CD0154DFDF91CF9136
S11315A00895CF93DF93FC01878590898F3F2FEFB8
S11315B0920729F48FEF9FEF908787830EC02385CE
S11315C022FF03C09087878308C0EF01638563FB14
S11315D0662760F941DF98878F83DF91CF91089563
S11315E0AF92BF92CF92DF92EF92FF921F93CF936D
S11315F0DF93EC011B8513FB112710F9CF84D888E6
S1131600612FC60129DF019659F0FE01E957FF4F0A
S113161011821082319782E08083CE01D5D422C01A
S1131620AD84BE8422DE7C010097D1F083DEF70115
S113163081818A5F8183E957FF4F11821082F7010C
S1131640B08AA786EF57FF4F0190F081E02D81E02B
S11316508083B282A182D482C3821583C701B4D4A9
S1131660CE0139DEDF91CF911F91FF90EF90DF9093
S1131670CF90BF90AF900895FC012185263049F4A6
S11316800780F085E02D658183819481EFDE81E020
S1131690089580E00895DC0119962C91199722236E
S11316A071F01796ED91FC9118972081222319F07F
S11316B0213019F006C022C50895DECF089580E0D8
S11316C0089580E00895BC01E8E6F9E02AE939E0EC
S11316D040E051E09081992319F091509083452F77
S11316E03596E217F307B1F7442319F0CB010C94B4
S11316F089130895E8E6F9E08AE999E010823596BD
S1131700E817F907D9F7E6E5F9E084E690E0A0E008
S1131710B0E086839783A087B187128683E69BE037
S1131720948783876BE47BE080E092CC0895CF9329
S1131730DF93DC01ED91FC91119721812838F9F4B4
S113174020812F7D2134D9F412962C912031B8F0C8
S1131750EC018BDD009799F020E2FC0120832A81C3
S113176021832B81ED57FF4F20832C8131962083D9
S11317704A8150E06881798102960E94191CDF91A8
S1131780CF910895662321F022E2FC01208308957D
S113179024E2FC01208308952F923F924F925F929E
S11317A06F927F928F929F92AF92BF92CF92DF926D
S11317B0EF92FF920F931F93CF93DF93CDB7DEB7D2
S11317C02C970FB6F894DEBF0FBECDBF00E010E03B
S11317D00F2EF4E2BF2EF02D0F2EF9ECEF2EFDE0CC
S11317E0FF2EF02DAA24A3946894662464F86894C8
S11317F0552453F86894442442F8212C312C0F2E9C
S1131800FFE17F2EF02DCC24C394D12CEFC1D8015D
S11318108C91823209F41AC130F4803259F0813249
S113182009F410C1E3C1833209F4DBC1843209F441
S1131830DBC1DCC1F801B082838583FDD7C125817A
S113184036812F3F3F4FC9F4D8011F962D913C910B
S11318505097F701408151814217530721F02F3FE0
S11318603F4F09F0C3C181FF04C0E1E2D801EC930A
S1131870BDC1E2E2D801EC93B9C1D8011F962D9104
S11318803C9150972F3F3F4F11F480FDAFC1F701BA
S113189020813181D8011D968D919C911E97281726
S11318A0390709F4A3C1C801E6DDE4E6F9E080E004
S11318B090E0822C932C9C014481442309F474C04D
S11318C0D8011D966D917C911E97408151816417BA
S11318D0750709F06AC01C968C911C97F901EE0FEC
S11318E0FF1FEE0FFF1FE20FF31FEC59F64F92811B
S11318F0981B983008F03EC0F901EE0FFF1FEE0F61
S1131900FF1FE20FF31FEC59F64F8381482F50E07D
S1131910092E02C0559547950A94E2F740FF17C077
S1131920F7012081318117968D919C911897281782
S1131930390709F05BC11B966C911B9763FB662703
S113194060F91F968D919C91509790DD4FC1F901DC
S1131950EE0FFF1FEE0FFF1F2E0F3F1FF901EC5973
S1131960F64F960102C0220F331F9A95E2F7822B9D
S1131970838343C1F901EE0FFF1FEE0FFF1F2E0FEC
S11319803F1FF901EC59F64F82838381282F30E001
S11319909195A90102C0440F551F9A95E2F7CA0117
S11319A081608383748229C14F01019635968A3000
S11319B0910509F080CF8114910409F417C1D8016D
S11319C01D968D919C911E97F401918380831C96A2
S11319D08C918283A382748286E599E09AD60DC1A4
S11319E0D7012D913C91F8018785908928173907F3
S11319F081F0438542FD0BC0C8013BD3D7012D9133
S1131A003C91F801878590892817390711F00196D0
S1131A1069F4D8011B968C911B9781FF03C0E1E206
S1131A20EC93E4C0E2E2D801EC93E0C0D80117964D
S1131A308D919C9118978217930709F0D7C0E3E220
S1131A40EC93D4C060E0C801FFD0D0C01092630909
S1131A50D80151968C91519782958F70E82FF0E0C0
S1131A60EE0FFF1FE153F24F0190F081E02D30970C
S1131A7009F460C01D962D913C911E973A832983E9
S1131A801F964D915C9150975C834B8351969C912A
S1131A9051979F709D838E83AF57BF4F8D919C91BB
S1131AA099878887B8016E5F7F4F861B970BD80193
S1131AB011969C911197981B9A87AD57BF4F8C91A3
S1131AC08B8711968C918C87D8011B969C91692FDA
S1131AD0637092FD02C080E001C080E2862B93FD1A
S1131AE002C090E001C090E4892B4F3F5F4F11F09A
S1131AF090E001C0942D892BD80119964D915C91E9
S1131B001A972417350711F090E001C0952D892B01
S1131B108F83D80115962D913C9116972F3F3F4FF7
S1131B2011F090E001C0962D892B8F83CE01019690
S1131B30199501C080E0F801938590FF80E0D801F9
S1131B4017962D913C9118972F3F3F4F69F4F70159
S1131B5040815181D8011F962D913C915097421795
S1131B60530711F493FF8A2DF801258136812F3F05
S1131B703F4FA1F1D7012D913C912F3F3F4F71F180
S1131B80882361F172DB4C01009741F1D3DBF4014E
S1131B9081818D5F8183E957FF4F11821082D801C3
S1131BA01B968C911B9786958170F401938580FB1D
S1131BB091F993871D968D919C911E97908B8787A1
S1131BC0EF57FF4F0190F081E02D1082809163095F
S1131BD082831C968C918183C401F6D1D801BC9276
S1131BE005C0C801FDDC02C0C80175DBC8017DDB8E
S1131BF08C01892B09F00BCE07C0F80187819085F1
S1131C00019609F0FBCEECCE2C960FB6F894DEBF0D
S1131C100FBECDBFDF91CF911F910F91FF90EF9039
S1131C20DF90CF90BF90AF909F908F907F906F90F8
S1131C305F904F903F902F9008951092AB091092AF
S1131C40AA091092A9090895662321F020E3FC0152
S1131C50208303C021E3FC0120838091AB098F5FC3
S1131C608093AB090895CF93DF93C091A909D091D4
S1131C70AA09FE01EF57FF4FA081B1817091A70916
S1131C80872F90E05091A809652F513108F060E149
S1131C906623D1F04091A609E6E9F9E0A80FB91F3F
S1131CA02FEF260F30E02956364F9C9180818927EB
S1131CB08D93442311F0808303C09081892780830E
S1131CC03196E217F30789F7760F7093A709561B2D
S1131CD05093A809552319F082E3888302C084E352
S1131CE08883DF91CF9108950F931F93CF93DF9350
S1131CF08091AB09882309F4E1C0E091A909F0912E
S1131D00AA09309709F4D4C08081843309F055C0FE
S1131D108091A709DF01AF57BF4FCD91DC91C80F68
S1131D20D11DA6E9B9E00D911D912D913C91139718
S1131D3014964D915D916D917C9117970427152709
S1131D402627372718964D915D916D917C911B97AD
S1131D5004271527262737271C964D915D916D91F1
S1131D607C911F97D901C80184279527A627B727F7
S1131D702091A609222351F088839983AA83BB83E7
S1131D8081818C5F8183CF01DED10DC061E0088148
S1131D9019812A813B81081719072A073B0709F093
S1131DA060E0CF01EFDC1092AA091092A90980919A
S1131DB0AB0981508093AB0981C0823309F07EC0A6
S1131DC083E380836FEE7DE086E999E0C9D376C032
S1131DD0DC012C912053223008F06CC09093AA09A6
S1131DE08093A909E6E9F9E01C964C911C9750E010
S1131DF060E070E040835183628373831F964D914A
S1131E005C91509760E070E0BA01552744275196E1
S1131E102C91519722952F70422B448355836683CE
S1131E2077831D964D915C911E9760E070E0BA0136
S1131E305527442751962C9151972F70422B408758
S1131E4051876287738715964D915C91169760E070
S1131E5070E0BA01552744271B962C911B97422BFF
S1131E6044875587668777876C91613331F411967F
S1131E702C911197245011962C93FC01EF57FF4F8E
S1131E80408151819C012E5F3F4F421B530BFC014B
S1131E902181241B2093A8091092A70921E0603313
S1131EA009F020E02093A60922E3DC012C9306C06C
S1131EB080E090E01ADA009709F08ACFDF91CF91A1
S1131EC01F910F910895EF92FF920F931F93CF9359
S1131ED07C0110E080E090E001E0C3E113C0FC016C
S1131EE02081213179F4EC57FF4F20813181215039
S1131EF0310931832083232B21F4FC01C083102F6B
S1131F0001C0102FF2D9009751F7112311F0C70126
S1131F1000D4CF911F910F91FF90EF900895EF920D
S1131F20FF920F931F93CF93DF937C0110E080E027
S1131F3090E001E0D7E1C0E116C0FC012081263128
S1131F4091F4EC57FF4F20813181215031093183C5
S1131F502083232B39F4FC01D083ED57FF4FC0833A
S1131F60102F01C0102FC1D9009739F7112311F098
S1131F70C701CFD3DF91CF911F910F91FF90EF90C5
S1131F8008951092C7091092C609E9EBF9E082E3BB
S1131F9090E0A0E0B0E086839783A087B1871286A3
S1131FA08FE89FE094878387ECEAF9E08AE090E089
S1131FB0A0E0B0E086839783A087B187128683E68A
S1131FC09FE0948783870895CF93DF93EC01FC010E
S1131FD0EA57FF4F808181FF03C092E1988308C0D4
S1131FE09B8591FF03C090E1988302C092E198839E
S1131FF0FE01ED57FF4F108280FF05C02FEF3FEF2A
S11320003E832D8306C02091CB0D3091CC0D3E83B1
S11320102D83857019F4CE01C4DA04C08F859889A4
S113202098878F83E9ECFDE0808191819A87898785
S113203085818F5F85838C838F819885019671F468
S113204081E498E89B838A830E940B1CCC57DF4F62
S11320508770992701969983888308C081E698E858
S11320609B838A83CC57DF4F19821882DF91CF91EB
S113207008950F931F93CF93DF938C01F6D8EC014F
S1132080892BB9F182E18883F80181818983FE017A
S1132090ED57FF4F10820E940B1CFE01EC57FF4FBF
S11320A087709927019691838083339611821082D9
S11320B0F801418150E0B8016E5F7F4FCE01029676
S11320C00E94191C81E498E89B838A838FEF9FEF19
S11320D098878F83F801858196819E838D83E9ECAF
S11320E0FDE0808191819A87898785818F5F8583CF
S11320F08C83DF91CF911F910F910895CF93DF933C
S1132100FC0121852330D9F410C0FC012081263143
S113211089F43485298132130DC027E120832A8173
S1132120EA57FF4F208381E00BC0FC01C781D085B3
S113213080E090E0DAD8009741F780E001C080E0C9
S1132140DF91CF91089522E1FC0120830895E0916D
S1132150C609F091C709813021F048F0823019F0A6
S113216004C080E205C081E203C081E001C080E0D8
S1132170DF01AD57BF4F8C9385E180831092C7096F
S11321801092C609E9ECFDE086A997A9019797ABDF
S113219086AB08959F92AF92BF92CF92DF92EF9257
S11321A0FF920F931F93CF93DF93C0E0D0E00F2EE5
S11321B0F4E1AF2EF02D09EC1DE00F2EF7E1DF2E38
S11321C0F02D0F2EF6E19F2EF02D0F2EF5E1EF2EC0
S11321D0F12CF02D0F2EF3E1CF2EF02D0F2EF1E187
S11321E0BF2EF02D65C088818331F1F028F4803151
S11321F049F0823159F05CC0853161F1873109F4CD
S113220048C056C061E0CE011FDD52C0FE01EC574C
S1132210FF4F80819181892B29F0B8828CEA99E063
S113222078D246C0C88244C08091C6099091C7093B
S1132230892B09F03DC0D093C709C093C609FE019C
S1132240A192CF01D1D0F80186A997A9019697ABA5
S113225086AB2EC0FE01ED57FF4F8081811117C060
S11322602D853E85F801808191812817390769F40D
S11322708B8580FF0AC09882FE01EC57FF4FF182E4
S1132280E08289EB99E045D213C0D88211C0D8828C
S11322900FC0CE013FD9FE01E957FF4F0190F081F5
S11322A0E02D309719F4CE0116D802C0CE0119954D
S11322B0CE011BD8EC01892B09F095CFDF91CF918A
S11322C01F910F91FF90EF90DF90CF90BF90AF9050
S11322D09F9008958091C809982F9F70E4E5F1E0DC
S11322E08081807F892B80838091C809882329F08D
S11322F08091C9098093530108958091C909982F49
S11323009F71E8E4F1E08081807E892B80830895C9
S1132310A2E4B1E023E0E1E4F1E02C9390819F7129
S11323209830D9F7A2E4B1E0E1E4F1E08C93908134
S11323309F718913FBCF089588E0EADF8FEF8093C4
S11323404F018091CA09882311F086E1E1CF0895F5
S113235060E481E00E948F05E9E3F1E0808181601F
S113236080831092CA091092C80981E080934B0AB5
S113237088E0CEDF8BEE80935601ECE4F1E08081BF
S11323808068808308958093CA09D6CF0895809386
S1132390C909A0CF0895CF93DF931F921F92CDB7A1
S11323A0DEB79A838983809362018A818093630173
S11323B00F900F90DF91CF910895CF93DF931F92E9
S11323C01F92CDB7DEB79A838983809360018A8197
S11323D08093610199818A81890F80936D010F90A7
S11323E00F90DF91CF910895CF93DF93EC0189E1B2
S11323F08FDF8FEF80934F0188818E5F8093800100
S11324008881882381F020E0822F90E0FC01EF573F
S1132410FE4FDE01A80FB91F11968C9180832F5FA8
S11324208881281788F383E080934B0A82E08093A5
S11324304201DF91CF910895CF93DF93EC01CB015B
S113244040E060E051D6CE0139D6CE01DBD6DF9133
S1132450CF9108951F93CF93DF9300D01F921F92C3
S1132460CDB7DEB780914B0A823009F465C0809104
S11324704F0183FF3EC0A0917B016A2F70E0AB0146
S11324804F5F5F4F80E090E020E0FC01E058FE4F9A
S11324903081FC01E553F64F30832F5F822F90E0AB
S11324A08417950794F38BEC99E09A838983A2505F
S11324B0AB83FB01E553F64F80818C838091470108
S11324C08A558D83CE01019632D9E1E4F1E0808111
S11324D08F718631E1F7EFE4F1E0808188608083D9
S11324E0ECE4F1E080818F77808380818068808351
S11324F023C080914F0186FF1FC0809141018F71DD
S11325008931A9F41091420112951695177049F07A
S1132510133021F0153021F013E003C011E001C0A5
S113252012E00ADF81E080934B0A812F10DEEFE492
S1132530F1E08081806480830F900F900F900F9062
S11325400F90DF91CF911F9108957BD0B6D500DF16
S11325500C94020808957EDF0E943108E5C00895B6
S11325606BDF81CB08950F931F93CF93DF93EC011F
S113257080914C0A90914D0A009709F445C04E8110
S11325805F8168857985FC0102811381248135810D
S1132590401751076207730760F0DC0117C002811E
S11325A0138124813581401751076207730768F44A
S11325B003C0FC01A0E0B0E0041B150B260B370B95
S11325C002831383248335830AC0DF01401B510B2C
S11325D0620B730BED91FC911197309701F74A83CD
S11325E05B836C837D83109741F08D919C9111974F
S11325F099838883CD93DC9315C099838883D09382
S11326004D0AC0934C0A0EC0198218828E819F8194
S1132610A885B9858A839B83AC83BD83D0934D0AF7
S1132620C0934C0ADF91CF911F910F91089580912F
S1132630010E8F5F8093010E80E197E20C94C80134
S113264008951092010E87E193E10E948B020E948B
S11326503D0280E197E20E94C80110924D0A109257
S11326604C0A0895CF93DF93A0914C0AB0914D0A80
S1132670109791F1A817B90751F50AC08E179F0753
S113268029F5109731F0208131812D933C9307C0B7
S1132690FC012081318130934D0A20934C0A019032
S11326A0F081E02D3097C1F04281538164817581BE
S11326B0EC018A819B81AC81BD81840F951FA61F8B
S11326C0B71F82839383A483B58306C0DF01ED9192
S11326D0FC911197309791F6DF91CF910895E09195
S11326E04C0AF0914D0A309771F0E817F90721F47C
S11326F00CC08E179F0759F00190F081E02D3097A0
S1132700C1F780E0089580E0089581E0089581E0B4
S11327100895CF93DF93EC01E2DF811102C0CE0173
S113272022DFDF91CF910895CF92DF92EF92FF9253
S11327300F931F93CF93DF931F92CDB7DEB7809192
S1132740010E882309F453C08FB78983F8948981D3
S1132750C090010E1092010E8FBFD12CE12CF12CF0
S1132760CC0CDD1CEE1CFF1CD701C601880F991F81
S1132770AA1FBB1F880F991FAA1FBB1FC80ED91EF3
S1132780EA1EFB1E1BC0C81AD90AEA0AFB0AD801B2
S11327908D919C91119790934D0A80934C0A1A96AF
S11327A08C91813011F4C801DEDED8011B96ED91C5
S11327B0FC911C97309711F0C801199500914C0AAF
S11327C010914D0A0115110591F0F8018281938150
S11327D0A481B581C816D906EA06FB06A0F68C19B1
S11327E09D09AE09BF0982839383A483B5830F90A7
S11327F0DF91CF911F910F91FF90EF90DF90CF90D9
S113280008950C94440208950C947C0208958091D8
S11328108400909185000895EFE6F0E080818D7F3B
S11328208083B19A0895B19AEFE6F0E080818260E6
S113283080830895EFE6F0E0808181608083B09A20
S1132840089580E890E082C30895E9E8F0E02081EB
S1132850922B9083E8E8F0E09081892B808308959F
S1132860CF93DF931F92CDB7DEB78FB78983F894E8
S113287089810F90DF91CF9108958FBF0895CF93F1
S1132880DF9380E890E0EBD261E074E180E890E0CF
S1132890D4D3CFE6D0E088818160888364E074E19A
S11328A080E890E0EAD388818D7F8883E1E8F0E0D6
S11328B080818160808388E0DF91CF9108951F92A9
S11328C00F920FB60F9211240BB60F922F933F93D2
S11328D04F935F936F937F938F939F93AF93BF9324
S11328E0EF93FF93E0916C0AF0916D0A309709F031
S11328F01995FF91EF91BF91AF919F918F917F9126
S11329006F915F914F913F912F910F900BBE0F905C
S11329100FBE0F901F9018951F920F920FB60F9233
S113292011240BB60F922F933F934F935F936F93A2
S11329307F938F939F93AF93BF93EF93FF93E09114
S11329406A0AF0916B0A309709F01995FF91EF919B
S1132950BF91AF919F918F917F916F915F914F91B3
S11329603F912F910F900BBE0F900FBE0F901F90B1
S113297018951F920F920FB60F9211240BB60F9257
S11329802F933F934F935F936F937F938F939F9373
S1132990AF93BF93EF93FF93E091680AF091690AB4
S11329A0309709F01995FF91EF91BF91AF919F91E5
S11329B08F917F916F915F914F913F912F910F90E4
S11329C00BBE0F900FBE0F901F9018951F920F9281
S11329D00FB60F9211240BB60F922F933F934F9380
S11329E05F936F937F938F939F93AF93BF93EF9373
S11329F0FF93E091660AF091670A309709F0199500
S1132A00FF91EF91BF91AF919F918F917F916F91C2
S1132A105F914F913F912F910F900BBE0F900FBE7E
S1132A200F901F9018951F920F920FB60F921124BA
S1132A300BB60F922F933F934F935F936F937F93B4
S1132A408F939F93AF93BF93EF93FF93E091640AA7
S1132A50F091650A309709F01995FF91EF91BF91B4
S1132A60AF919F918F917F916F915F914F913F9122
S1132A702F910F900BBE0F900FBE0F901F901895C3
S1132A801F920F920FB60F9211240BB60F922F9331
S1132A903F934F935F936F937F938F939F93AF93E2
S1132AA0BF93EF93FF93E091620AF091630A30972A
S1132AB009F01995FF91EF91BF91AF919F918F917B
S1132AC07F916F915F914F913F912F910F900BBE2A
S1132AD00F900FBE0F901F9018951F920F920FB674
S1132AE00F9211240BB60F922F933F934F935F9342
S1132AF06F937F938F939F93AF93BF93EF93FF93C2
S1132B00E091600AF091610A309709F01995FF91FC
S1132B10EF91BF91AF919F918F917F916F915F9151
S1132B204F913F912F910F900BBE0F900FBE0F90BE
S1132B301F9018951F920F920FB60F9211240BB687
S1132B400F922F933F934F935F936F937F938F9342
S1132B509F93AF93BF93EF93FF93E0915E0AF0913D
S1132B605F0A309709F01995FF91EF91BF91AF91EA
S1132B709F918F917F916F915F914F913F912F9191
S1132B800F900BBE0F900FBE0F901F9018951F92C1
S1132B900F920FB60F9211240BB60F922F933F93FF
S1132BA04F935F936F937F938F939F93AF93BF9351
S1132BB0EF93FF93E0915C0AF0915D0A309709F07E
S1132BC01995FF91EF91BF91AF919F918F917F9153
S1132BD06F915F914F913F912F910F900BBE0F908A
S1132BE00FBE0F901F9018951F920F920FB60F9261
S1132BF011240BB60F922F933F934F935F936F93D0
S1132C007F938F939F93AF93BF93EF93FF93E09141
S1132C105A0AF0915B0A309709F01995FF91EF91E8
S1132C20BF91AF919F918F917F916F915F914F91E0
S1132C303F912F910F900BBE0F900FBE0F901F90DE
S1132C4018951F920F920FB60F9211240BB60F9284
S1132C502F933F934F935F936F937F938F939F93A0
S1132C60AF93BF93EF93FF93E091580AF091590A01
S1132C70309709F01995FF91EF91BF91AF919F9112
S1132C808F917F916F915F914F913F912F910F9011
S1132C900BBE0F900FBE0F901F9018951F920F92AE
S1132CA00FB60F9211240BB60F922F933F934F93AD
S1132CB05F936F937F938F939F93AF93BF93EF93A0
S1132CC0FF93E091560AF091570A309709F019954D
S1132CD0FF91EF91BF91AF919F918F917F916F91F0
S1132CE05F914F913F912F910F900BBE0F900FBEAC
S1132CF00F901F9018951F920F920FB60F921124E8
S1132D000BB60F922F933F934F935F936F937F93E1
S1132D108F939F93AF93BF93EF93FF93E091540AE4
S1132D20F091550A309709F01995FF91EF91BF91F1
S1132D30AF919F918F917F916F915F914F913F914F
S1132D402F910F900BBE0F900FBE0F901F901895F0
S1132D501F920F920FB60F9211240BB60F922F935E
S1132D603F934F935F936F937F938F939F93AF930F
S1132D70BF93EF93FF93E091520AF091530A309777
S1132D8009F01995FF91EF91BF91AF919F918F91A8
S1132D907F916F915F914F913F912F910F900BBE57
S1132DA00F900FBE0F901F9018951F920F920FB6A1
S1132DB00F9211240BB60F922F933F934F935F936F
S1132DC06F937F938F939F93AF93BF93EF93FF93EF
S1132DD0E091500AF091510A309709F01995FF914A
S1132DE0EF91BF91AF919F918F917F916F915F917F
S1132DF04F913F912F910F900BBE0F900FBE0F90EC
S1132E001F9018951F920F920FB60F9211240BB6B4
S1132E100F922F933F934F935F936F937F938F936F
S1132E209F93AF93BF93EF93FF93E0914E0AF0917A
S1132E304F0A309709F01995FF91EF91BF91AF9127
S1132E409F918F917F916F915F914F913F912F91BE
S1132E500F900BBE0F900FBE0F901F9018951F93ED
S1132E60CF93DF931F92CDB7DEB72FB72983F894A2
S1132E701981009709F464C08837910549F461E029
S1132E8080E00E948F0560E180E00E948F0558C0B9
S1132E90803C910529F462E080E00E948F0550C0D7
S1132EA08C34910529F464E080E00E948F0548C0C9
S1132EB08038910529F468E080E00E948F0540C0C5
S1132EC08434910529F460E280E00E948F0538C0C3
S1132ED0803B910529F460E480E00E948F0530C0B6
S1132EE0883B910529F460E880E00E948F0528C0A2
S1132EF0883C910529F461E081E00E948F0520C09F
S1132F008039910529F468E081E00E948F0518C09A
S1132F10803A910529F460E181E00E948F0510C098
S1132F20803221E0920729F460E281E00E948F055B
S1132F3007C08334914021F460E481E00E948F054E
S1132F401FBF0F90DF91CF911F9108951F93CF93CF
S1132F50DF931F92CDB7DEB72FB72983F894198179
S1132F60009709F464C08837910549F461E080E072
S1132F700E94A70560E180E00E94A70558C0803C3C
S1132F80910529F462E080E00E94A70550C08C34CA
S1132F90910529F464E080E00E94A70548C08038C8
S1132FA0910529F468E080E00E94A70540C08434BC
S1132FB0910529F460E280E00E94A70538C0803BB7
S1132FC0910529F460E480E00E94A70530C0883BA5
S1132FD0910529F460E880E00E94A70528C0883C98
S1132FE0910529F461E081E00E94A70520C08039A1
S1132FF0910529F468E081E00E94A70518C0803A91
S1133000910529F460E181E00E94A70510C0803297
S113301021E0920729F460E281E00E94A70507C03D
S11330208334914021F460E481E00E94A7051FBF2E
S11330300F90DF91CF911F9108958038910529F465
S113304070936D0A60936C0A08958039910529F490
S11330507093650A6093640A0895803A910529F48F
S113306070935D0A60935C0A08958032914021F464
S11330707093550A6093540A08958038910529F491
S113308070936B0A60936A0A08958039910529F454
S11330907093630A6093620A0895803A910529F453
S11330A070935B0A60935A0A08958032914021F428
S11330B07093530A6093520A08950895FC019C0189
S11330C0205F3F4FAEE3B1E081918C93E217F307A9
S11330D0D9F780918E0A806880933C01EDE3F1E09A
S11330E0808180FFFDCF08950F931F93CF93DF93CB
S11330F0CDB7DEB760970FB6F894DEBF0FBECDBF75
S1133100062F142F0097C9F010928F0A22E0209303
S1133110110220E1FC01AEE7BAE001900D922A957C
S1133120E1F7DC01AC01405F5F4F2FE331E09D919B
S1133130F90190834A175B07D1F7112319F0113075
S113314089F048C080911102813079F5EEE7FAE008
S11331502EE83AE0AFE3B1E081918C932E173F075C
S1133160D9F723C0809111028130B1F180918F0A87
S1133170811136C010928E0A10923C01CE01019644
S11331809DDFEEE6FAE02EE73AE0AFE3B1E08C91A2
S113319081932E173F07D9F781E080938F0A20C0CF
S11331A081918C932E173F07D9F7109311020230A7
S11331B0A8F4F0E20F9FC0011124082F0072110F30
S11331C0110F110F1870102B10938E0A10933C01DD
S11331D081E00DC080E00BC080E009C080E007C042
S11331E0EEE6FAE02EE73AE0AFE3B1E0D9CF60963D
S11331F00FB6F894DEBF0FBECDBFDF91CF911F9104
S11332000F910895FC019C01205F3F4FAEE3B1E0B4
S11332108C918193E217F307D9F7089504C06150A4
S11332207109810991096115710581059105B9F744
S113323008951092640B089581E08093A60B08957D
S113324081E08093980B0895CF93DF938091640B72
S1133250811128C0C091910ACC2321F14C2F50E058
S113326062E97AE08BEF9AE0E4D2E5E6FBE0809154
S113327012029091130296838583D1E0D783D0877D
S113328082E081878BEF9AE093878287C48789E104
S113329099E196878587CF010E945F081092910A71
S11332A0D093640BDF91CF910895CECF0895CF933F
S11332B0DF93EC019091B40B911185C0EF81F885F7
S11332C080818134F1F487EA9BE023DA85E192E09E
S11332D09F938F9301D389818F9388818F9381E505
S11332E092E09F938F93F8D281E892E09F938F931B
S11332F0F3D28DB79EB708960FB6F8949EBF0FBE53
S11333008DBFEF81F88580818A3509F587EA9BE0D6
S1133310A9D91092A60B85E192E09F938F93DCD2FA
S113332089818F9388818F9389EB92E09F938F9308
S1133330D3D281E892E09F938F93CED22C9AEDB7AB
S1133340FEB738960FB6F894FEBF0FBEEDBFEF81FF
S1133350F88580818235B9F50E940D059093BA0BEA
S11333608093B90BFC0121811F922F9380811F92BE
S11333708F9388EE92E09F938F9382E99AE09F93D4
S11333808F93BDD289E68093910A88819981909325
S113339013028093120258DF8FEF9FEF9093130272
S11333A08093120289818F9388818F9385EF92E0B5
S11333B09F938F9391D28DB79EB70C960FB6F894C6
S11333C09EBF0FBE8DBF81E0DF91CF910895E7EAE4
S11333D0FBE088EE93E0A0E0B0E086839783A087CB
S11333E0B18781E082878CE199E19487838708958E
S11333F0E9E9FBE080E29EE4A0E0B0E08683978305
S1133400A087B18781E0828780E299E194878387EE
S1133410CF017FC908950E9474050E941D0695D8A6
S11334200E940D0778940E9446050E94DD04CFDFB8
S1133430DFDF80E18DBB8FE293E09F938F934CD2CB
S11334400F900F900F2EF6E7CF2EFBE0DF2EF02D1E
S11334500F2EF4E18F2E912CA12CB12CF02D0F2ED8
S1133460F5E56F2EF9E17F2EF02D2C2C3D2C0F2E3F
S1133470F9E34F2E55245394F02D6DD88091830B8E
S1133480811124C085E190E00E941A0887E695E442
S11334900E9421088FE00E94C71181E00E94C3119D
S11334A067E579E181E00E942808D60116968D929D
S11334B09D92AD92BC9219971A961C921A971C96DB
S11334C07C926E921B9781E08093830B64E184E885
S11334D09BE00E946D078093900A882359F1C4E809
S11334E0DBE0E12CF12C8E0188810E94AC078091F5
S11334F0910A893609F4A8DEE091910AE93650F47C
S113350081E08E0F8093910AF0E0EE56F54FD801DA
S11335108C918083BFEFEB1AFB0A21968091900A6D
S113352090E0E816F906F8F2822D932D9BD8822DAF
S1133530932DEFD88091B40B81119FCF8091A60B6E
S1133540882321F080E183B91092A60B8091980B17
S1133550882309F459C00E940D059093BA0B8093F7
S1133560B90BEDE4F3E0FF93EF93B6D1E091B90B1F
S1133570F091BA0B81811F928F9380811F928F9358
S11335801F9284E18F931F9285E18F9385EB93E0E3
S11335909F938F93A1D1E091B90BF091BA0B8181E4
S11335A01F928F9380811F928F93E2EFF3E0FF933A
S11335B0EF9382E99AE09F938F93A1D189E6809358
S11335C0910AE2E0F0E0F0931302E09312023CDE91
S11335D08FEF9FEF90931302809312021F9283E068
S11335E08F931F9282E08F938FEF93E09F938F933B
S11335F073D11092980BADB7BEB75A960FB6F89424
S1133600BEBF0FBEADBF39CF82E0F201808383B766
S1133610817F83BF83B7816083BF889583B78E7FA3
S113362083BF2BCF1F920F920FB60F9211240BB6AC
S11336300F922F933F934F935F936F937F938F9347
S11336409F93AF93BF93EF93FF939091B40B81E05B
S1133650891B8093B40B87EA9BE004D81092A60BD5
S11336602C9A8091B40B81110AC01092390186E220
S113367094E09F938F9330D10F900F9007C084E311
S113368094E09F938F9328D10F900F9066E578E58F
S113369084E190E0C3DDFF91EF91BF91AF919F91E1
S11336A08F917F916F915F914F913F912F910F90E7
S11336B00BBE0F900FBE0F901F901895DB018F93D8
S11336C09F9349D0BF91AF91A29F800D911DA39F5D
S11336D0900DB29F900D11240895AA1BBB1B51E1BC
S11336E007C0AA1FBB1FA617B70710F0A61BB70B6E
S11336F0881F991F5A95A9F780959095BC01CD0113
S11337000895A1E21A2EAA1BBB1BFD010DC0AA1F1E
S1133710BB1FEE1FFF1FA217B307E407F50720F036
S1133720A21BB30BE40BF50B661F771F881F991FB1
S11337301A9469F760957095809590959B01AC01FA
S1133740BD01CF010895EE0FFF1F881F8BBF0790A7
S1133750F691E02D199409D0A59F900DB49F900D7A
S1133760A49F800D911D11240895A29FB001B39FC1
S1133770C001A39F700D811D1124911DB29F700D76
S1133780811D1124911D08958F929F92AF92BF9233
S1133790CF92DF92EF92FF92CF93DF93EC01688197
S11337A079818A819B81611571058105910521F4D7
S11337B064E279ED8BE597E02DE133EF41E050E0F1
S11337C0BBD449015A019B01AC01A7EAB1E4C3DFB0
S11337D06B017C01ACEEB4EFA5019401CBD4DC0108
S11337E0CB018C0D9D1DAE1DBF1DB7FF03C00197FE
S11337F0A109B04888839983AA83BB839F77DF910B
S1133800CF91FF90EF90DF90CF90BF90AF909F90BB
S11338108F900895B9CF80E092E0B6CFA0E0B0E0F9
S11338208093000290930102A0930202B0930302DA
S11338300895FB01DC0102C001900D9241505040FB
S1133840D8F708950F931F93CF93DF93009731F424
S11338506115710519F480E090E039C08B01EC0129
S11338606EE070E081E090E075D2FC01892B99F361
S113387080E883830115110571F01387028781E8BD
S113388083838091030E9091040E892B21F4F0938D
S1133890040EE093030E2097C9F0D187C08783817B
S11338A0826083838091050E9091060E892B71F4BA
S11338B0F093060EE093050E8091070E9091080E8A
S11338C0892B21F4F093080EE093070ECF01DF91CA
S11338D0CF911F910F910895CF93DF93CDB7DEB7AA
S11338E0AE014A5F5F4FFA0161917191AF0180911E
S11338F0050E9091060E31D0DF91CF9108950F936C
S11339001F93CF93DF93CDB7DEB72E970FB6F894FE
S1133910DEBF0FBECDBF0E891F8986E08C831A835C
S113392009838FEF9FE79E838D83AE01465E5F4FD1
S1133930688D798DCE01019610D0EF81F885E00F66
S1133940F11F10822E960FB6F894DEBF0FBECDBFC6
S1133950DF91CF911F910F9108952F923F924F9233
S11339605F926F927F928F929F92AF92BF92CF920B
S1133970DF92EF92FF920F931F93CF93DF93CDB714
S1133980DEB72B970FB6F894DEBF0FBECDBF6C0128
S11339907B018A01FC0117821682838181FFBFC1EA
S11339A0CE0101963C01F6019381F70193FD8591C7
S11339B093FF81917F01882309F4ADC1853239F4E5
S11339C093FD859193FF81917F01853221F4B601A6
S11339D090E018D3E8CF912C212C312CFFE1F31582
S11339E0D8F08B3279F038F4803279F08332A1F454
S11339F0232D20611DC08D3261F0803369F4232DA5
S1133A00216016C0832D8260382EE32DE4603E2EA3
S1133A102AC0F32DF8601DC037FC2DC020ED280FFF
S1133A202A3040F08E32B9F436FC75C1232D20645F
S1133A30322E19C036FE06C08AE0989E200D11244D
S1133A40922E11C0EAE02E9E200D1124222EF32D79
S1133A50F0623F2E08C08C3621F4832D8068382E06
S1133A6002C0883641F4F70193FD859193FF81915B
S1133A707F018111B3CF982F9F7D9554933028F403
S1133A800C5F1F4F9FE399830DC0833631F083375A
S1133A9071F0833509F055C020C0F8018081898315
S1133AA00E5F1F4F88248394912C530112C0280168
S1133AB0F2E04F0E511CF801A080B18036FE03C025
S1133AC0692D70E002C06FEF7FEFC50190D24C0109
S1133AD08201F32DFF773F2E15C0280122E0420E0C
S1133AE0511CF801A080B18036FE03C0692D70E03E
S1133AF002C06FEF7FEFC50168D24C01F32DF0686F
S1133B003F2E820133FC19C0822D90E0881699065D
S1133B10A0F4B60180E290E075D22A94F5CFF501C5
S1133B2037FC859137FE81915F01B60190E06AD23E
S1133B3021102A9421E0821A91088114910479F7C2
S1133B40E1C0843611F0893639F5F80137FE07C033
S1133B5060817181828193810C5F1F4F08C06081F5
S1133B607181072E000C880B990B0E5F1F4FF32DEC
S1133B70FF763F2E97FF09C09095809570956195CB
S1133B807F4F8F4F9F4FF0683F2E2AE030E0A30114
S1133B9075D2882E861844C0853731F4232D2F7EA4
S1133BA0B22E2AE030E025C0932D997FB92E8F36AE
S1133BB0C1F018F4883579F0AEC0803719F0883731
S1133BC021F0A9C0E92FE061BE2EB4FE0DC0FB2D8B
S1133BD0F460BF2E09C034FE0AC0292F2660B22E1D
S1133BE006C028E030E005C020E130E002C020E15A
S1133BF032E0F801B7FE07C0608171818281938150
S1133C000C5F1F4F06C06081718180E090E00E5F01
S1133C101F4FA30133D2882E8618FB2DFF773F2E2A
S1133C2036FE0DC0232D2E7FA22E891458F434FEA7
S1133C300BC032FC09C0832D8E7EA82E05C0B82C83
S1133C40A32C03C0B82C01C0B92CA4FE0FC0FE01E4
S1133C50E80DF11D8081803321F49A2D997EA92EDF
S1133C6009C0A2FE06C0B394B39404C08A2D86781A
S1133C7009F0B394A3FC10C0A0FE06C0B21480F4F3
S1133C80280C922C9B180DC0B21458F4B60180E293
S1133C9090E0B8D1B394F8CFB21418F42B1802C042
S1133CA0982C212CA4FE0FC0B60180E390E0AAD189
S1133CB0A2FE16C0A1FC03C088E790E002C088E51C
S1133CC090E0B6010CC08A2D867851F0A1FE02C0A6
S1133CD08BE201C080E2A7FC8DE2B60190E092D1B4
S1133CE0891430F4B60180E390E08CD19A94F8CF33
S1133CF08A94F301E80DF11D8081B60190E082D130
S1133D008110F6CF222009F44ECEB60180E290E075
S1133D1079D12A94F7CFF6018681978102C08FEF7B
S1133D209FEF2B960FB6F894DEBF0FBECDBFDF9189
S1133D30CF911F910F91FF90EF90DF90CF90BF90A4
S1133D40AF909F908F907F906F905F904F903F9037
S1133D502F9008950F931F93CF93DF93869F800135
S1133D60879F100D969F100D1124C8010DD0EC01F2
S1133D70009721F0A80160E070E032D1CE01DF911C
S1133D80CF911F910F9108950F931F93CF93DF93BA
S1133D908230910510F482E090E0E0910B0EF091F6
S1133DA00C0E20E030E0A0E0B0E0309719F1408143
S1133DB051810281138148175907C8F08417950768
S1133DC069F4109731F012960C93129713961C9382
S1133DD027C000930B0E10930C0E22C02115310541
S1133DE019F04217530718F49A01BD01EF01DF01DE
S1133DF0F801DBCF21153105F9F0281B390B2430EC
S1133E00310580F48A819B816115710521F0FB01E4
S1133E109383828304C090930C0E80930B0EFE0157
S1133E20329644C0FE01E20FF31F81939193225016
S1133E303109398328833AC02091090E30910A0E42
S1133E40232B41F4209106023091070230930A0E8D
S1133E502093090E209104023091050221153105A9
S1133E6041F42DB73EB74091080250910902241B3A
S1133E70350BE091090EF0910A0EE217F307A0F456
S1133E802E1B3F0B2817390778F0AC014E5F5F4FAC
S1133E902417350748F04E0F5F1F50930A0E4093C6
S1133EA0090E8193919302C0E0E0F0E0CF01DF912D
S1133EB0CF911F910F910895CF93DF93009709F449
S1133EC081C0FC01329713821282A0910B0EB09133
S1133ED00C0E109781F420813181820F931F209161
S1133EE0090E30910A0E2817390751F5F0930A0E7E
S1133EF0E093090E67C0ED0120E030E0CE17DF0744
S1133F0040F44A815B819E0141155105F1F0EA01BB
S1133F10F5CFD383C28340815181840F951FC81785
S1133F20D90759F488819981840F951F029691834A
S1133F3080838A819B81938382832115310529F4AF
S1133F40F0930C0EE0930B0E3DC0E901FB83EA8372
S1133F5049915991C40FD51FEC17FD0761F4808175
S1133F609181840F951F0296E90199838883828148
S1133F7093819B838A83E0E0F0E012968D919C917B
S1133F801397009719F0FD01DC01F7CF8D919C91F7
S1133F9011979D012E5F3F4F820F931F2091090EB1
S1133FA030910A0E2817390769F4309729F41092D2
S1133FB00C0E10920B0E02C013821282B0930A0EE2
S1133FC0A093090EDF91CF910895FC0105906150F3
S1133FD070400110D8F7809590958E0F9F1F08951B
S1133FE0DC0101C06D9341505040E0F70895FC019D
S1133FF06150704001900110D8F7809590958E0F14
S11340009F1F08950F931F93CF93DF93FB01238189
S113401021FD03C08FEF9FEF2CC022FF16C0468105
S11340205781248135814217530744F4A081B1811B
S11340309D012F5F3F4F318320838C9326813781ED
S11340402F5F3F4F3783268314C08B01EC01FB01A4
S11340500084F185E02D1995892BE1F6D801169697
S11340608D919C911797019617969C938E93169712
S1134070CE01DF91CF911F910F910895FA01AA27E4
S1134080283051F1203181F1E8946F936E7F6E5F97
S11340907F4F8F4F9F4FAF4FB1E03ED0B4E03CD045
S11340A0670F781F891F9A1FA11D680F791F8A1F28
S11340B0911DA11D6A0F711D811D911DA11D20D08F
S11340C009F468943F912AE0269F11243019305D49
S11340D03193DEF6CF010895462F4770405D41933A
S11340E0B3E00FD0C9F7F6CF462F4F70405D4A3387
S11340F018F0495D31FD4052419302D0A9F7EACF4F
S1134100B4E0A6959795879577956795BA95C9F77D
S113411000976105710508959B01AC010A2E069470
S11341205795479537952795BA95C9F7620F731F29
S1134130841F951FA01D0895052E97FB16F4009467
S11341400FD057FD05D0DDDA07FC02D046F408C0D5
S113415050954095309521953F4F4F4F5F4F0895AF
S113416090958095709561957F4F8F4F9F4F0895DF
S1134170B7FFF1CAF0DA821B930B0895F894FFCFCE
S11341800100000000000D0E200080250000030047
S11341900102FFFF600D0A0A0A0A2A2A2A2A2A2A89
S11341A02A2A2A2A2A2A2A2A2A2A2A2A2A2A2A2A6B
S11341B02A2A2A2A2A2A2A2A2A2A2A2A2A2A2A2A5B
S11341C02A2A2A2A2A2A2A2A2A2A2A2A2A200A0D92
S11341D0000D0A204C4120414C41524D41204841A0
S11341E0205349444F2041435449564144412050AF
S11341F04F5220454C2053494E4B3A2025640A0D1A
S1134200000D0A2A2A2A2A2A2A2A2A2A2A2A2A2A71
S11342102A2A2A2A2A2A2A2A2A2A2A2A2A2A2A2AFA
S11342202A2A2A2A2A2A2A2A2A2A2A2A2A2A2A2AEA
S11342302A2A2A2A2A2A200D000D0A204C4120412C
S11342404C41524D41204841205349444F20415054
S1134250414741444120504F5220454C2053494E40
S11342604B3A2025640A0D00585F253032642C2512
S113427030336443000D0A2052657370756573749E
S1134280612061206C61207074656963696F6E20C0
S113429064652074656D7065726174757261206403
S11342A0656C2053696E6B20256420200A0D000D77
S11342B00A202A456C206E6F646F20657374612038
S11342C0656E63656E6469646F200A0D000D0A0AE9
S11342D00A0A2A2A2A2A2A2A2A2A2A2A2A2A2A2A7A
S11342E02A2A2A2A2A2A2A2A2A2A2A2A2A2A2A2A2A
S11342F02A2A2A2A2A2A2A2A2A20204E7565766101
S1134300204D75657374726120202A2A2A2A2A2A6C
S11343102A2A2A2A2A2A2A2A2A2A2A2A2A2A2A2AF9
S11343202A2A2A2A2A2A2A2A2A2A2A2A2A2A2A2AE9
S11343302A200A0D000D0A2054656D70657261749F
S1134340757261206D656469646120656E206E6FAD
S1134350646F2049643D2564205B74733D25647358
S11343605D3D20253032642C253033642043200AFF
S11343700D005420253032642C2530336443000D65
S11343800A20456E766961646F2061206C6F73202A
S11343906E6F646F732053696E6B202564207920DF
S11343A02564200A0D000D0A536C656570206F6644
S11343B0660A0D000D0A536C656570206F6E0A0D58
S10543C00000F7
S9030000FC
